:100000000C941B010C9443010C9443010C94430188
:100010000C9443010C9443010C9443010C94430150
:100020000C9443010C9443010C946C080C94380715
:100030000C9443010C9443010C9443010C94430130
:100040000C9443010C9443010C9443010C94430120
:100050000C9443010C9443010C9443010C94E0086C
:100060000C9443010C9418040C944A040C9443011E
:100070000C9443010C9443010C9443010C944301F0
:100080000C9443010C9443010C9443010C944301E0
:100090000C9443010C9443010C9443010C944301D0
:1000A0000C9443010C9443010C944301080B00028F
:1000B0000202010009040000010202000005240000
:1000C0001001052401010104240206052406000193
:1000D0000705810310004009040100020A00000026
:1000E000070502024000000705830240000000C12E
:1000F0008081C11201000202000040032A01800039
:1001000001010200011201000200000040032A0167
:100110008000010102000141726475696E6F205315
:10012000726C004C696E696E6F204F6E650004033F
:10013000090400000000000000002A2B2800000035
:1001400000000000000000000000000000000000AF
:1001500000002C9EB4A0A1A2A434A6A7A5AE362D63
:100160003738271E1F20212223242526B333B62EFD
:10017000B7B89F8485868788898A8B8C8D8E8F906F
:100180009192939495969798999A9B9C9D2F313034
:10019000A3AD350405060708090A0B0C0D0E0F1058
:1001A0001112131415161718191A1B1C1DAFB1B014
:1001B000B50009040200010300000009210101004B
:1001C000012265000705840340000105010902A121
:1001D000010901A10085010509190129031500255F
:1001E00001950375018102950175058103050109DA
:1001F00030093109381581257F750895038106C0BE
:10020000C005010906A1018502050719E029E715C6
:1002100000250175019508810295017508810395F6
:10022000067508150025650507190029658100C0B8
:10023000B4027A04010B11241FBECFEFDAE0DEBF57
:10024000CDBF11E0A0E0B1E0E2ECF6E102C0059024
:100250000D92AA3BB107D9F722E0AAEBB1E001C0A9
:100260001D92A73CB207E1F712E0C6E3D2E004C05A
:100270002297FE010E945B0BC033D107C9F70E9491
:10028000BE040C945F0B0C940000DC01ED91FC911A
:100290000190F081E02D099440E052EC61E070E0C3
:1002A0008BEB91E00E94AE02409100015091010160
:1002B000609102017091030126E08BE092E00C94C2
:1002C000B603CF93DF938BEB91E00E942B02EC01FE
:1002D0008F3F2FEF920709F472C08091BA0181110C
:1002E0000DC0CE37D10521F481E08093BA0167C0FB
:1002F000BE018BE092E00E94450161C0C033D10590
:1003000061F426E040E051EE60E070E08BE092E0C6
:100310000E94B6036AE171E00EC0C133D10581F4D9
:1003200026E040E052EC61E070E08BE092E00E9459
:10033000B6036DE271E08BEB91E00E942A053DC0AF
:10034000C233D10561F426E040E950ED63E070E08E
:100350008BE092E00E94B60361E471E0ECCFC3331E
:10036000D10561F426E040E251EA67E070E08BE0FD
:1003700092E00E94B60365E571E0DDCFCE37D1058E
:1003800089F4E0910B02F0910C020280F381E02DE0
:100390004BE050E06EE071E08BE092E0099569E699
:1003A00071E0C9CF6EE770E08BE092E00E944501FA
:1003B000BE018BE092E00E9445011092BA018BE0F1
:1003C00092E00E94EC028F3F2FEF920739F0682FE6
:1003D0008BEB91E0DF91CF910C94F101DF91CF9104
:1003E0000895CF93DF931F92CDB7DEB76983DC0109
:1003F000ED91FC910280F381E02D41E050E0BE01DF
:100400006F5F7F4F09950F90DF91CF910895CF9344
:10041000DF93EC018C859D8597FF05C082E00E94EB
:100420000D069D878C878C859D85DF91CF910895E2
:1004300083E00C946208FC018485958597FD06C0D5
:1004400082E00E94B50590E00196089582E00E9446
:10045000B50590E00895FC018485958597FD05C05C
:100460002FEF3FEF35872487089582E00C940D0627
:10047000CF93DF93EC0180910B01882331F083E06F
:100480000E943E061816190634F081E090E09B8326
:100490008A8380E090E0DF91CF910895FC01208174
:1004A0002E5F208342E450E06CEA70E080E80C9418
:1004B000D906FC0181819081913A59F4813209F089
:1004C0003CC047E050E064E071E080E00E94D90663
:1004D00043C0913291F5803239F467E070E084E0F6
:1004E00091E00E940A0706C0823209F035C082817D
:1004F00080930B018091040190910501A091060168
:10050000B0910701803B9440A105B105C1F48091F1
:100510000B0180FD14C087E797E790930108809353
:1005200000082BE088E190E00FB6F894A89580933E
:1005300060000FBE209360000FC080E0089588E146
:100540000FB6F89480936000109260000FBEA895DB
:10055000109201081092000881E008952FEF3FEFFC
:10056000FC013587248708951092BE011092BD01C9
:1005700088EE93E0A0E0B0E08093BF019093C001CB
:10058000A093C101B093C2018FE891E09093BC01A8
:100590008093BB018FEF9FEF9093C8018093C701B9
:1005A0000895FC01818D228D90E0805C9F4F821B1D
:1005B000910960E470E00E940F0B0895FC01918D99
:1005C000828D981731F0828DE80FF11D858D90E0B6
:1005D00008958FEF9FEF0895FC01918D828D9817FC
:1005E00061F0828DDF01A80FB11D5D968C91928D17
:1005F0009F5F9F73928F90E008958FEF9FEF089514
:1006000080E794E0892B49F080E090E0892B29F085
:100610000E94700481110C9400000895FC01848DE7
:10062000DF01A80FB11DA35ABF4F2C91848D90E01C
:1006300001968F739927848FA689B7892C93A089F7
:10064000B1898C9180648C93938D848D981306C0AE
:100650000288F389E02D80818F7D80830895CF9378
:10066000DF93EC01888D8823C9F0EA89FB898081BA
:1006700085FD05C0A889B9898C9186FD0FC00FB68C
:1006800007FCF5CF808185FFF2CFA889B9898C91CD
:1006900085FFEDCFCE010E940E03E7CFDF91CF9112
:1006A0000895CF92DF92FF920F931F93CF93DF9322
:1006B0001F92CDB7DEB76C01DC015B969C915B9716
:1006C0005C968C915C97981307C05096ED91FC91C5
:1006D0005197808185FD32C0F601038D10E00F5FD8
:1006E0001F4F0F731127F02EF601848DF81211C0E1
:1006F0000FB607FCF9CFD6015096ED91FC915197BA
:10070000808185FFF1CFC60169830E940E03698154
:10071000EBCF838DE80FF11DE35AFF4F6083D601C5
:100720005B960C935B975296ED91FC915397808169
:100730008062808381E058968C930DC0D6015696D6
:10074000ED91FC91579760835096ED91FC915197F4
:1007500080818064808381E090E00F90DF91CF9171
:100760001F910F91FF90DF90CF900895BF92CF928D
:10077000DF92EF92FF92CF93DF93EC016A017B014E
:10078000B22EE889F98982E08083411581EE58070D
:1007900061057105A1F060E079E08DE390E0A701CB
:1007A00096010E94230B21503109410951095695A8
:1007B000479537952795211580E1380798F0E88906
:1007C000F989108260E874E88EE190E0A701960153
:1007D0000E94230B21503109410951095695479533
:1007E00037952795EC85FD853083EE85FF85208341
:1007F000188EEC89FD89B082EA89FB89808180614D
:100800008083EA89FB89808188608083EA89FB890B
:10081000808180688083EA89FB8980818F7D8083E5
:10082000DF91CF91FF90EF90DF90CF90BF90089530
:100830001F920F920FB60F9211242F938F939F93B5
:10084000EF93FF93E0911B02F0911C028081E091F5
:100850002102F091220282FD12C090818091240237
:100860008F5F8F7320912502821751F0E09124024F
:10087000F0E0E55FFD4F958F8093240201C08081F9
:10088000FF91EF919F918F912F910F900FBE0F903D
:100890001F9018951F920F920FB60F9211242F934D
:1008A0003F934F935F936F937F938F939F93AF93F8
:1008B000BF93EF93FF938BE092E00E940E03FF91B2
:1008C000EF91BF91AF919F918F917F916F915F91C8
:1008D0004F913F912F910F900FBE0F901F90189541
:1008E0008BE092E00E94D10221E0892B09F420E004
:1008F000822F089510920E0210920D0288EE93E05E
:10090000A0E0B0E080930F0290931002A093110238
:10091000B09312028FE991E090930C0280930B0246
:100920008DEC90E090931802809317028CEC90E08D
:1009300090931A028093190288EC90E090931C0225
:1009400080931B0289EC90E090931E0280931D021D
:100950008AEC90E09093200280931F028EEC90E04E
:100960009093220280932102109224021092250279
:100970001092260210922702089508950E94750988
:100980000E94BD0488EA92E00E94C2080E944C01C5
:10099000C0E0D3E00E9461012097E1F30E940003D0
:1009A000F9CFCF92DF92EF92FF920F931F93CF93E5
:1009B000DF936C017A01EB01E60EF71E00E010E018
:1009C000CE15DF0561F06991D601ED91FC910190A2
:1009D000F081E02DC6010995080F191FF1CFC8015C
:1009E000DF91CF911F910F91FF90EF90DF90CF900B
:1009F00008956115710581F0DB010D900020E9F784
:100A0000AD0141505109461B570BDC01ED91FC91A2
:100A10000280F381E02D099480E090E00895DC01EC
:100A2000ED91FC910190F081E02D09940F931F93BB
:100A3000CF93DF93EC016DE00E940F058C016AE01B
:100A4000CE010E940F05800F911FDF91CF911F9162
:100A50000F9108950F931F93CF93DF93EC010E94A2
:100A6000F9048C01CE010E941605800F911FDF91C1
:100A7000CF911F910F9108954091AC025091AD021A
:100A80002091AA023091AB0242175307B4F490911F
:100A9000E8009570E1F39091E80092FD19C0809311
:100AA000F1008091AC029091AD0201968F7399276D
:100AB000892B19F48EEF8093E8008091AC0290911D
:100AC000AD0201969093AD028093AC0281E008954F
:100AD00080E00895CF92DF92FF920F931F93CF9300
:100AE000DF931F92CDB7DEB7082F162F862F880F02
:100AF0008E5F99830E943C0583E00E943C05F02EA6
:100B0000C02E9981D92E8C2D8F19811778F4F6017A
:100B100084910E943C05082F80E00E943C058023C0
:100B2000FFEFCF1ADF0A8111EECF01C081E00F90F5
:100B3000DF91CF911F910F91FF90DF90CF9008959B
:100B4000615030F02091F100FC0120830196F8CF34
:100B5000289884E68093AF0208952FB7FC01208384
:100B6000F89467706093E9000895CF93DF931F9224
:100B7000CDB7DEB7682FCE0101960E94AD058091FA
:100B8000F20099819FBF0F90DF91CF910895FF925E
:100B90000F931F93CF93DF9300D0CDB7DEB7F62E20
:100BA0008A019091AE02992311F057FF03C08FEF95
:100BB0009FEF2BC0682FCE0101967A830E94AD056E
:100BC0008091F20090E0A8017A81801791070CF4DF
:100BD000AC01EF2DF72FF40E84E6FE1639F02898BD
:100BE0008093AF029091F1009193F7CF4115510599
:100BF00021F08091F200882321F089818FBFCA0102
:100C000004C08BE68093E800F8CF0F900F90DF913F
:100C1000CF911F910F91FF900895CF93DF931F9273
:100C2000CDB7DEB741E050E0BE016F5F7F4F0E945D
:100C3000C705019719F4898190E002C08FEF9FEFFB
:100C40000F90DF91CF910895CF93DF931F92CDB78F
:100C5000DEB7682FCE0101960E94AD059091E800A5
:100C6000892F807295FF04C09091F20080E4891B67
:100C700099819FBF0F90DF91CF9108956F927F92DE
:100C80008F929F92AF92BF92CF92DF92EF92FF929C
:100C90000F931F93CF93DF931F92CDB7DEB7782EBC
:100CA0007B01C42EB52E8091AE02882369F0042FFB
:100CB000152F8AEFD82E872D8072982E9AE3A92EB1
:100CC000872D8074882E11C08FEF9FEF57C0872D1E
:100CD0000E942406682E81110CC0DA94A9F361E009
:100CE00070E080E090E00E944D090115110579F750
:100CF0003BC0282F30E0021713070CF4602E672D3D
:100D0000CE0101960E94AD058091E80085FF29C0C3
:100D1000262D30E0021B130B992039F06A948FEFD7
:100D20006816B1F01092F100F9CFF701862D77FE29
:100D300007C0815058F094919093F1003196F9CF0B
:100D4000815020F091919093F100FACFE20EF31EC2
:100D50008091E80085FF0FC00115110511F4811085
:100D60000AC089818FBFC1CF5D9884E68093B002AD
:100D70008C2D9B2D03C0A092E800F3CF0F90DF9144
:100D8000CF911F910F91FF90EF90DF90CF90BF9088
:100D9000AF909F908F907F906F9008951092E90090
:100DA0001092AD021092AC029093AB028093AA0213
:100DB0000895CF92DF92FF920F931F93CF93DF930B
:100DC00000D0CDB7DEB7F82E8A016B0101151105F1
:100DD000B1F0F601F7FE02C0849101C08081498321
:100DE0005A830E943C0501501109FFEFCF1ADF0A18
:100DF00049815A818111EACF8FEF9FEF01C0CA016B
:100E00000F900F90DF91CF911F910F91FF90DF9086
:100E1000CF9008951F93CF93DF931F92CDB7DEB786
:100E2000162F2091E80022FFFCCF612F79830E94CA
:100E3000A0058BEF8093E800812F7981972F0F9089
:100E4000DF91CF911F910895CF93DF931F92CDB77C
:100E5000DEB71982CE0101960E944E02CE010196A4
:100E60000E94E909898190E00F90DF91CF91089568
:100E70001F920F920FB60F921124EF92FF920F93D1
:100E80001F932F933F934F935F936F937F938F9312
:100E90009F93AF93BF93EF93FF93CF93DF93CDB720
:100EA000DEB76297DEBFCDBF1092E9008091E80007
:100EB00083FFEBC068E0CE010A960E94A00582EF96
:100EC0008093E8009A8597FF05C08091E80080FF35
:100ED000FCCF03C08EEF8093E800892F807609F065
:100EE000B9C08B85811105C01092F1001092F100FC
:100EF000C5C0282F2D7F213009F4C0C0853049F4AA
:100F00008091E80080FFFCCF8C8580688093E300AF
:100F1000B5C0863009F076C02D85E888F988223082
:100F200071F580E090E02A8B0E94CE060E94240793
:100F300099E08E010F5F1F4FF801392F11923A95FA
:100F4000E9F799832A892A8391E09E8390E898871C
:100F50009AEF99872091AC023091AD02275F3F4F05
:100F60003C832B838D83C7010E94CE0649E050E06D
:100F7000B80180E00E94D9060E9424077FC0C70103
:100F80002A8B0E94CE062A89223241F482E290E026
:100F90000E94F409892B09F071C074C0213069F4F2
:100FA00088899989089711F42093A9028091A90250
:100FB000811118C065E071E01AC0233009F062C0E9
:100FC0008C85882391F0823021F46AE083E291E0FD
:100FD00006C0813009F056C06BE087E191E00E94C5
:100FE0006A054AC063EF70E002C06EE271E061150D
:100FF000710509F447C0FB01449150E080E80E946C
:10100000D9063CC0873009F43DC0883021F481E026
:101010008093F10033C0893089F5937099F5EFEE34
:10102000F0E081E021E096E38093E9002093EB007B
:1010300034913093EC009093ED008F5F31968530C2
:1010400099F78EE78093EA001092EA008C858093EE
:10105000AE0214C0888999890E94CE068E858111BE
:1010600005C0CE010A960E94590206C0823051F492
:10107000CE010A960E941C0A882321F08EEF8093ED
:10108000E80003C081E28093EB0062960FB6F8940B
:10109000DEBF0FBECDBFDF91CF91FF91EF91BF912A
:1010A000AF919F918F917F916F915F914F913F9100
:1010B0002F911F910F91FF90EF900F900FBE0F9007
:1010C0001F9018958093E9008091F200882319F011
:1010D0008AE38093E80008951F920F920FB60F9253
:1010E00011242F933F934F935F936F937F938F932D
:1010F0009F93AF93BF93EF93FF938091E100109282
:10110000E10083FF0FC01092E90091E09093EB00A3
:101110001092EC0092E39093ED001092AE0298E0F2
:101120009093F00082FF1DC083E00E9462088091CE
:10113000B002882339F08091B00281508093B002D0
:10114000882369F08091AF02882359F08091AF0223
:1011500081508093AF02811104C0289A02C05D9A29
:10116000F1CFFF91EF91BF91AF919F918F917F91BF
:101170006F915F914F913F912F910F900FBE0F9004
:101180001F9018951092AE0281E08093D70080EAFC
:101190008093D80082E189BD09B400FEFDCF61E0F3
:1011A00070E080E090E00E944D0980E98093D800D3
:1011B0008CE08093E2001092E000559A209A089506
:1011C0001F920F920FB60F9211242F933F938F937C
:1011D0009F93AF93BF938091B2029091B302A0917D
:1011E000B402B091B5023091B10223E0230F2D3744
:1011F00020F40196A11DB11D05C026E8230F02961B
:10120000A11DB11D2093B1028093B2029093B3024D
:10121000A093B402B093B5028091B6029091B70248
:10122000A091B802B091B9020196A11DB11D8093A1
:10123000B6029093B702A093B802B093B902BF91DF
:10124000AF919F918F913F912F910F900FBE0F9073
:101250001F9018953FB7F8948091B6029091B7020D
:10126000A091B802B091B90226B5A89B05C02F3F46
:1012700019F00196A11DB11D3FBF6627782F892F58
:101280009A2F620F711D811D911D42E0660F771F1D
:10129000881F991F4A95D1F70895CF92DF92EF9258
:1012A000FF92CF93DF936B017C010E942A09EB012F
:1012B000C114D104E104F10489F00E940E0B0E94D4
:1012C0002A096C1B7D0B683E734090F381E0C81ABD
:1012D000D108E108F108C851DC4FEACFDF91CF9186
:1012E000FF90EF90DF90CF900895789484B582605E
:1012F00084BD84B5816084BD85B5826085BD85B5BA
:10130000816085BDEEE6F0E0808181608083E1E868
:10131000F0E01082808182608083808181608083A0
:10132000E0E8F0E0808181608083E1E9F0E08081A5
:1013300082608083808181608083E0E9F0E0808149
:1013400081608083E1ECF0E0808184608083808133
:1013500082608083808181608083E3ECF0E0808123
:1013600081608083E0ECF0E0808182608083E2EC49
:10137000F0E0808181608083EAE7F0E08081846032
:10138000808380818260808380818160808380818E
:10139000806880830895FF920F931F93CF93DF930C
:1013A000EC01F62EE881F9810480F581E02D0995A4
:1013B0008C01E881F9810680F781E02D6F2DCE0147
:1013C0000995C8019927DF91CF911F910F91FF9047
:1013D0000895FC0120812F5F208349E150E062EBFA
:1013E00071E080E80C94D90645E650E06BEC71E0C2
:1013F00080E80C94D906EF92FF920F931F93CF933E
:10140000DF931F92CDB7DEB789838B017A0141E06C
:1014100050E0BE016F5F7F4F84E00E943E06A7014F
:10142000B80184E40E943E060F90DF91CF911F9196
:101430000F91FF90EF900895FC0191818081813A96
:1014400031F481E0913091F0933089F411C0813210
:1014500071F49B3021F4828180930D0105C09A3094
:1014600031F4828180930C0181E00895089580E039
:10147000089548E050E082E00C94FB09CF93DF939D
:10148000DC01683818F0E8E7E60F25C0E62FF0E049
:1014900067FF11C0E058F10981E090E001C0880FBA
:1014A000EA95EAF714969C911497982B14969C93BE
:1014B0001497E0E010C0EE5CFE4FE491EE2309F4D7
:1014C00040C0E7FF08C014968C9114978260149670
:1014D0008C931497EF7716968C9116978E1741F18F
:1014E00017968C9117978E1719F118968C9118975B
:1014F0008E17F1F019968C9119978E17C9F01A96DC
:101500008C911A978E17A1F01B968C911B978E17B2
:1015100079F080E090E0ED01C80FD91F2E812111F4
:1015200002C0EE8305C0019686309105A1F709C07F
:10153000BD016C5F7F4FCD010E94390A81E090E0D0
:1015400008C081E090E013969C938E93129780E000
:1015500090E0DF91CF910895683818F0E8E7E60F42
:1015600025C0E62FF0E067FF12C0E058F10921E046
:1015700030E001C0220FEA95EAF72095DC011496CD
:101580003C911497322314963C93E0E00FC0EE5C3C
:10159000FE4FE491EE2329F1E7FF08C0DC01149629
:1015A0002C9114972D7F14962C93EF7720E030E048
:1015B000EE2351F0DC01A20FB31F16964C91169743
:1015C0004E1302C016961C922F5F3F4F26303105F6
:1015D00079F7BC016C5F7F4F0E94390A81E090E08F
:1015E000089580E090E00895FC011682178210862D
:1015F0001186128613861482BC016C5F7F4F0C9497
:10160000390A1092C6021092BD021092BC028FEAF3
:1016100091E09093BB028093BA020895089597FBDE
:10162000072E16F4009407D077FD09D00E94450BD1
:1016300007FC05D03EF4909581959F4F08957095D5
:1016400061957F4F0895A1E21A2EAA1BBB1BFD01D5
:101650000DC0AA1FBB1FEE1FFF1FA217B307E40791
:10166000F50720F0A21BB30BE40BF50B661F771FE9
:10167000881F991F1A9469F76095709580959095C9
:101680009B01AC01BD01CF010895AA1BBB1B51E119
:1016900007C0AA1FBB1FA617B70710F0A61BB70BE2
:1016A000881F991F5A95A9F780959095BC01CD0187
:1016B0000895EE0FFF1F0590F491E02D0994F89422
:0216C000FFCF5A
:1016C20090D0030000E10000000000000101FF00D3
:1016D200000558585858587FF900537065656420C2
:1016E20073657420746F203537363030005370655F
:1016F20065642073657420746F2031313532303067
:101702000053706565642073657420746F203235F0
:101712003030303000537065656420736574207416
:101722006F203530303030300053656E64696E673B
:101732002062726964676527732073687574646FC9
:10174200776E20636F6D6D616E640000000000F1C2
:101752000138021B022B020702180200000000518E
:1017620003D104D102EC02DE022F0300000000CB01
:0A17720009D1043E0AAC0AF40A0093
:1070000055C000006EC000006CC000006AC00000E7
:1070100068C0000066C0000064C0000062C00000DC
:1070200060C000005EC00000FCC400005AC0000048
:1070300058C0000056C0000054C0000052C00000FC
:1070400050C000005DC000004CC000004AC00000FD
:1070500048C0000046C0000044C0000042C000001C
:1070600040C000003EC000003CC000003AC000002C
:1070700038C0000036C0000034C0000032C000003C
:1070800030C000002EC000002CC000002AC000004C
:1070900028C0000026C0000024C0000022C000005C
:1070A00020C000001EC000001CC0000011241FBE34
:1070B000CFEFDAE0DEBFCDBF11E0A0E0B1E0E6E463
:1070C000FFE702C005900D92AA3AB107D9F711E087
:1070D000AAEAB1E001C01D92A33CB107E1F74FD38A
:1070E00030C78ECFF89410926F001092810081E02B
:1070F00085BF15BE47985D9A289A0C9400000895A4
:107100001F920F920FB60F9211242F938F939F937C
:10711000EF93FF9310928500109284008091AA0152
:107120009091AB01009741F001979093AB01809350
:10713000AA01892B09F45D9A8091AC019091AD016F
:10714000009741F001979093AD018093AC01892B9A
:1071500009F4289A8091B0019091B1010196909321
:10716000B1018093B001E0E0F0E0859194918F5FF0
:107170009F4F49F08091AE019091AF01019690939D
:10718000AF018093AE01FF91EF919F918F912F916D
:107190000F900FBE0F901F90189584E08093E90028
:1071A0000DC08091E8008B778093E80003C08EB318
:1071B000882351F08091E80082FFF9CF8091E800A8
:1071C00085FFEFCF8091F1000895982F83E08093A1
:1071D000E9008091E80085FD0DC08091E8008E7780
:1071E0008093E80003C08EB3882369F08091E800A3
:1071F00080FFF9CF9093F1005D9884E690E0909342
:10720000AB018093AA0108954F925F926F927F9293
:107210008F929F92AF92BF92CF92DF92EF92FF92A6
:107220000F931F93CF93DF9384E08093E9008091C5
:10723000E80082FF57C2289884E690E09093AD0161
:107240008093AC01AADF182F853481F48CE49DE192
:107250009093AF018093AE0107B600FCFDCFF99982
:10726000FECF81E180935700E89503C0843519F47F
:1072700094DF8DE00DC28C34E1F38035D1F3843797
:1072800021F484E4A2DF80E003C2813611F489E5B1
:10729000FFC18134B1F481DF182F7FDF90E0880FC8
:1072A000991FAA2797FDA095BA2F312F330F20E001
:1072B000442737FD4095542F822B932BA42BB52BBD
:1072C000B8C1803711F483E5E3C1833549F4C0E0E8
:1072D000D1E089917ADF21E0C730D207D1F7D9C157
:1072E000863521F481E371DF80E3D2C1833731F445
:1072F00087E86BDF85E969DF8EE1CAC18536B9F4BD
:10730000E0E0F0E093E085E090935700E89507B661
:1073100000FCFDCF80935700E89507B600FCFDCF39
:10732000E058FF4FA0E7E030FA0771F7A2CF8237AD
:1073300039F4E1E0F0E089E0809357008491A8C13E
:10734000863439F4E0E0F0E089E0809357008491DE
:107350009FC18E3439F4E3E0F0E089E08093570078
:10736000849196C1813539F4E2E0F0E089E08093C0
:10737000570084918DC1823631F489E526DF80E0A3
:1073800024DF80E885C1823419F0873609F0E5C032
:107390001092AF011092AE0100DF082FFEDEF82E32
:1073A000FCDE682E8554823008F071C1902F80E099
:1073B000CF2DD0E0C82BD92B10926F00173609F0D3
:1073C0004BC081E180935700E895DD24CC24C39421
:1073D0003FC0E090B301F090B4010091B50110916D
:1073E000B601B6E46B16D9F4ED2DF0E0EE29FF29D5
:1073F000E4918E2FEADEDD2081F082E090E0A0E0D3
:10740000B0E0E80EF91E0A1F1B1FE092B301F092D4
:10741000B4010093B5011093B601DC2418C0D80163
:10742000C701B695A7959795879575D5CEDE82E06D
:1074300090E0A0E0B0E0E80EF91E0A1F1B1FE092EA
:10744000B301F092B4010093B5011093B6012197F6
:10745000209709F0BECF7DC08090B3019090B40119
:10746000A090B501B090B60196E4691609F05DC030
:1074700083E0F40180935700E89507B600FCFDCF48
:1074800054C0F6E46F1661F5772031F1E090B30156
:10749000F090B4010091B5011091B6017EDED82EB6
:1074A000CC24852D90E08C299D29F7010C01409278
:1074B0005700E895112482E090E0A0E0B0E0E80EEB
:1074C000F91E0A1F1B1FE092B301F092B401009352
:1074D000B5011093B60102C060DE582E742423C09B
:1074E000E090B301F090B4010091B5011091B601A4
:1074F00016950795F794E79450DE682FC70113D5CA
:107500008091B3019091B401A091B501B091B60101
:107510000296A11DB11D8093B3019093B401A09375
:10752000B501B093B601219704C0552477244424B3
:107530004394209709F0A5CF96E4691641F485E0BD
:10754000F40180935700E89507B600FCFDCF8DE06D
:107550003CDE82E080936F009CC0833471F4009124
:10756000B3011091B40119DE90E021E0F8010C01A3
:1075700020935700E89511247CCE833619F5E090CE
:10758000B301F090B4010091B5011091B60105DE90
:10759000F701E16090E021E00C0120935700E895AD
:1075A000112482E090E0A0E0B0E0E80EF91E0A1F8E
:1075B0001B1FE092B301F092B4010093B501109348
:1075C000B60157CE8D3661F4E091B301F091B4016C
:1075D00085E080935700E89507B600FCFDCF49CEC3
:1075E000823551F4E091B301F091B4010591149109
:1075F000812FEBDD802F4CC0843421F5E090B30166
:10760000F090B4010091B5011091B601169507955F
:10761000F794E794C2DD682FC70185D48091B30148
:107620009091B401A091B501B091B6010296A11D4F
:10763000B11D8093B3019093B401A093B501B093B1
:10764000B60117CE843609F5E090B301F090B4018D
:107650000091B5011091B601D801C701B695A79563
:107660009795879558D4B1DD82E090E0A0E0B0E036
:10767000E80EF91E0A1F1B1FE092B301F092B4013D
:107680000093B5011093B60104C08B3111F08FE364
:107690009CDD83E08093E9009091E8008091E80010
:1076A0008E778093E80095FF04C010C08EB38823C6
:1076B000C9F08091E80080FFF9CF8091E8008E77D3
:1076C0008093E80003C08EB3882361F08091E800C6
:1076D00080FFF9CF84E08093E9008091E8008B7708
:1076E0008093E800DF91CF911F910F91FF90EF9071
:1076F000DF90CF90BF90AF909F908F907F906F90D2
:107700005F904F9008959091BB01892F8F778132C0
:1077100049F58091BC018032A1F0813219F5913A8E
:1077200009F58091E800877F8093E8008CE091E084
:1077300067E070E027D28091E8008B778093E800C3
:107740000895913279F48091E800877F8093E80072
:107750008CE091E067E070E079D28091E8008E776C
:107760008093E800089582E061EC42E0D1D083E0AC
:1077700061E842E1CDD084E060E842E1C9C01F93F6
:10778000209100081092000844B714BE88E10FB69B
:10779000F89480936000109260000FBE80E8E0E0F3
:1077A000F0E00FB6F89480936100E09361000FBEA3
:1077B00031E035BF92E095BF3F9A209A559A809369
:1077C00061001092610047985D9A289A1092890092
:1077D0008AEF8093880090936F0083E0809381000C
:1077E000859194918F5F9F4F11F03093B201942F48
:1077F00041FF19C0809109012817A9F08093000862
:10780000789480911301882339F08091B001909190
:10781000B10188579140C8F310920008F89481E0B4
:10782000809313010CC090FF04C08091B2018823A3
:1078300051F493FF09C080910901281729F0809124
:10784000B201882309F04EDCD4D078941092AF01B5
:107850001092AE011EEF20C0D7DC4BD38091AE0159
:107860009091AF0181549F4110F0109213018091CB
:10787000B7019091B80101969093B8018093B70138
:10788000292F97FF03C0512F591B252F220F28178F
:1078900010F4479801C0479A809113018823E1F6BC
:1078A0008091E00081608093E0001CDC80E090E04B
:1078B0001F910895FA01923049F0933061F09130B0
:1078C000F9F484E191E022E130E01EC086E291E02B
:1078D0002EE330E019C0882329F484E691E024E007
:1078E00030E012C0813029F488E691E022E230E0F5
:1078F0000BC0823029F48CE891E02CE130E004C028
:1079000080E090E020E030E091838083C901089519
:107910008093E9008091EB0081608093EB001092EE
:10792000ED006093EC004093ED008091EE00881F25
:107930008827881F08958091BB0188238CF403C099
:107940008EB38823B1F08091E80082FFF9CF809157
:10795000E8008B778093E80008958EB3882349F080
:107960008091E80080FFF9CF8091E8008E778093C6
:10797000E8000895EF92FF920F931F9345D04CD0EB
:1079800008ED10E0F80180818F7780838081806826
:10799000808380818F7D808319BC1EBA1092B901CB
:1079A00080EEE82EF12CF70180818B7F8083F80137
:1079B00080818160808380E060E042E0A9DFE1EEC9
:1079C000F0E080818E7F8083E2EEF0E08081816054
:1079D0008083808188608083F70180818E7F8083AF
:1079E000F8018081806180831F910F91FF90EF905B
:1079F0000895E7EDF0E08081816080838AE482BFB2
:107A000081E08093BA01B6CFE8EDF0E080818E7F0F
:107A100080831092E20008951092DA001092E10043
:107A200008951F920F920FB60F9211242F933F9338
:107A30004F935F936F937F938F939F93AF93BF9376
:107A4000EF93FF938091DA0080FF1BC08091D800F4
:107A500080FF17C08091DA008E7F8093DA008091DA
:107A6000D90080FF0BC080E189BD82E189BD09B4E6
:107A700000FEFDCF81E08EBB3BD203C019BC1EBA15
:107A800037D28091E10080FF17C08091E20080FF33
:107A900013C08091E2008E7F8093E2008091E2002B
:107AA00080618093E2008091D80080628093D8004A
:107AB00019BC85E08EBB1CD28091E10084FF2CC0F4
:107AC0008091E20084FF28C080E189BD82E189BD08
:107AD00009B400FEFDCF8091D8008F7D8093D8003F
:107AE0008091E1008F7E8093E1008091E2008F7EA3
:107AF0008093E2008091E20081608093E2008091B7
:107B0000B901882331F48091E30087FD02C081E050
:107B100001C084E08EBBECD18091E10083FF21C0E5
:107B20008091E20083FF1DC08091E100877F8093F8
:107B3000E10082E08EBB1092B9018091E1008E7F5E
:107B40008093E1008091E2008E7F8093E20080913B
:107B5000E20080618093E20080E060E042E0D8DEF5
:107B6000C7D1FF91EF91BF91AF919F918F917F917D
:107B70006F915F914F913F912F910F900FBE0F909A
:107B80001F9018959C014091C1015091C201461768
:107B9000570718F4F90190E044C06115710511F020
:107BA000AB01F8CF8091E8008E778093E80040E049
:107BB00050E0F0CF8EB3882309F444C0853009F437
:107BC00043C08091E80083FF02C081E00895809166
:107BD000E80082FD31C08091E80080FF22C08091E2
:107BE000F3009091F200782F60E0292F30E0262BEF
:107BF000372B07C081918093F100415050402F5F97
:107C00003F4F4115510519F02830310598F390E0A8
:107C10002830310509F491E08091E8008E77809357
:107C2000E8004115510531F6992321F605C08EB3C0
:107C3000882341F0853041F08091E80082FFF7CF42
:107C400080E0089582E0089583E008959C01611525
:107C5000710529F48091E8008B778093E800F901A1
:107C600026C08EB3882391F1853091F18091E80090
:107C700083FF02C081E008958091E80082FFF1CF88
:107C800006C08091F10081936150704059F02091BD
:107C9000F3008091F200322F20E090E0822B932BB2
:107CA000892B79F78091E8008B778093E800611544
:107CB0007105B9F605C08EB3882341F0853041F0D7
:107CC0008091E80080FFF7CF80E0089582E008957A
:107CD00083E008950F931F93DF93CF9300D0CDB728
:107CE000DEB7EBEBF1E08091F100819381E0E33CC2
:107CF000F807C9F708DD8091E80083FFE4C08091B0
:107D0000BB019091BC01953009F46DC0963040F4F0
:107D1000913081F1913070F0933009F0D4C02AC0D5
:107D2000983009F4A3C0993009F4B2C0963009F034
:107D3000CAC07CC0803809F4C6C0823809F0C3C00C
:107D40008091BF0187708093E9008091EB001092D1
:107D5000E9002091E800277F2093E80090E025E0EB
:107D6000969587952A95E1F781708093F10010929E
:107D7000F10087C0882319F0823009F0A4C08F7108
:107D8000823009F0A0C08091BD01882331F5209197
:107D9000BF01277009F497C02093E9008091EB00A0
:107DA00080FF1BC0933021F48091EB00806213C0F0
:107DB0008091EB0080618093EB0081E090E002C055
:107DC000880F991F2A95E2F78093EA001092EA0043
:107DD0008091EB0088608093EB001092E900809125
:107DE000E800877F51C0882309F06DC01091BD0164
:107DF0001F770FB7F8948091E800877F8093E800A1
:107E00009ADD8091E80080FFFCCF8091E3008078CC
:107E1000812B8093E30080688093E300112311F4A9
:107E200082E001C083E08EBB0FBF4DC0805882301E
:107E300008F049C08091BD019091BE016091BF01E1
:107E4000AE014F5F5F4F36DDBC01009709F43BC0C8
:107E50008091E800877F8093E80089819A8192DE93
:107E60008091E8008B778093E8002DC0803859F529
:107E70008091E800877F8093E8008091B90180932A
:107E8000F1008091E8008E778093E80054DD1BC0FC
:107E90008823C9F49091BD019230A8F48091E80044
:107EA000877F8093E8009093B90145DD8091B90107
:107EB000882331F48091E30087FD02C081E001C096
:107EC00084E08EBB50DC8091E80083FF0AC0809183
:107ED000EB0080628093EB008091E800877F8093C5
:107EE000E8000F900F90CF91DF911F910F910895AF
:107EF00008951F938EB3882361F01091E9001092CA
:107F0000E9008091E80083FF01C0E4DE1770109360
:107F1000E9001F910895F999FECF92BD81BDF89AAD
:107F2000992780B50895262FF999FECF1FBA92BDE3
:107F300081BD20BD0FB6F894FA9AF99A0FBE01964A
:067F40000895F894FFCF44
:107F46004341544552494E41007700080000000065
:107F5600000008011201100102000008032A0100B6
:107F660001000201000109023E00020100803209FF
:107F7600040000010202010005240010010424028D
:107F8600040524060001070582030800FF09040111
:107F960000020A000000070504021000010705831D
:107FA600021000010403090422034C0069006E005C
:107FB60069006E006F0020004F004E004500200053
:107FC6002000200020002000200000001C03640088
:107FD6006F0067002000680075006E007400650081
:0A7FE6007200200041004700000077
:040000030000700089
:00000001FF
