:100000000C941E010C9446010C9446010C9446017C
:100010000C9446010C9446010C9446010C94460144
:100020000C9446010C9446010C946F080C943B0709
:100030000C9446010C9446010C9446010C94460124
:100040000C9446010C9446010C9446010C94460114
:100050000C9446010C9446010C9446010C94E30860
:100060000C9446010C941B040C944D040C94460112
:100070000C9446010C9446010C9446010C944601E4
:100080000C9446010C9446010C9446010C944601D4
:100090000C9446010C9446010C9446010C944601C4
:1000A0000C9446010C9446010C944601080B000286
:1000B0000202010009040000010202000005240000
:1000C0001001052401010104240206052406000193
:1000D0000705810310004009040100020A00000026
:1000E000070502024000000705830240000000C12E
:1000F0008081C11201000202000040032A508000EA
:1001000001010200011201000200000040032A5018
:100110008000010102000141726475696E6F205315
:10012000726C0041726475696E6F2059756E204D56
:10013000696E69000403090400000000000000006B
:100140002A2B280000000000000000000000000032
:1001500000000000000000002C9EB4A0A1A2A43466
:10016000A6A7A5AE362D3738271E1F20212223240F
:100170002526B333B62EB7B89F8485868788898AAB
:100180008B8C8D8E8F909192939495969798999A47
:100190009B9C9D2F3130A3AD350405060708090A45
:1001A0000B0C0D0E0F101112131415161718191A27
:1001B0001B1C1DAFB1B0B500090402000103000013
:1001C00000092101010001226500070584034000A8
:1001D0000105010902A1010901A100850105091913
:1001E000012903150025019503750181029501750B
:1001F00005810305010930093109381581257F750D
:100200000895038106C0C005010906A10185020504
:100210000719E029E7150025017501950881029568
:1002200001750881039506750815002565050719F0
:100230000029658100C0B7027D04040B11241FBE94
:10024000CFEFDAE0DEBFCDBF11E0A0E0B1E0E8EC37
:10025000F6E102C005900D92AA3BB107D9F722E062
:10026000AAEBB1E001C01D92A73CB207E1F712E092
:10027000CCE3D2E004C02297FE010E945E0BC6339D
:10028000D107C9F70E94C1040C94620B0C940000C2
:10029000DC01ED91FC910190F081E02D099440E0AA
:1002A00052EC61E070E08BEB91E00E94B102409172
:1002B000000150910101609102017091030126E05B
:1002C0008BE092E00C94B903CF93DF938BEB91E03A
:1002D0000E942E02EC018F3F2FEF920709F472C0AB
:1002E0008091BA0181110DC0CE37D10521F481E092
:1002F0008093BA0167C0BE018BE092E00E94480182
:1003000061C0C033D10561F426E040E051EE60E009
:1003100070E08BE092E00E94B9036AE171E00EC0E8
:10032000C133D10581F426E040E052EC61E070E099
:100330008BE092E00E94B9036DE271E08BEB91E0FB
:100340000E942D053DC0C233D10561F426E040E98D
:1003500050ED63E070E08BE092E00E94B90361E44D
:1003600071E0ECCFC333D10561F426E040E251EAFD
:1003700067E070E08BE092E00E94B90365E571E010
:10038000DDCFCE37D10589F4E0910B02F0910C025C
:100390000280F381E02D4BE050E06EE071E08BE0F5
:1003A00092E0099569E671E0C9CF6EE770E08BE0F5
:1003B00092E00E944801BE018BE092E00E94480159
:1003C0001092BA018BE092E00E94EF028F3F2FEF74
:1003D000920739F0682F8BEB91E0DF91CF910C946D
:1003E000F401DF91CF910895CF93DF931F92CDB7A2
:1003F000DEB76983DC01ED91FC910280F381E02D91
:1004000041E050E0BE016F5F7F4F09950F90DF9193
:10041000CF910895CF93DF93EC018C859D8597FF55
:1004200005C082E00E9410069D878C878C859D8583
:10043000DF91CF91089583E00C946508FC018485D9
:10044000958597FD06C082E00E94B80590E0019670
:10045000089582E00E94B80590E00895FC0184852B
:10046000958597FD05C02FEF3FEF358724870895C9
:1004700082E00C941006CF93DF93EC0180910B0186
:10048000882331F083E00E9441061816190634F0E3
:1004900081E090E09B838A8380E090E0DF91CF91C0
:1004A0000895FC0120812E5F208342E450E06CEA35
:1004B00070E080E80C94DC06FC0181819081913A27
:1004C00059F4813209F03CC047E050E064E071E04B
:1004D00080E00E94DC0643C0913291F5803239F40D
:1004E00067E070E084E091E00E940D0706C0823270
:1004F00009F035C0828180930B01809104019091B5
:100500000501A0910601B0910701803B9440A1052F
:10051000B105C1F480910B0180FD14C087E797E716
:1005200090930108809300082BE088E190E00FB6DB
:10053000F894A895809360000FBE209360000FC0D0
:1005400080E0089588E10FB6F894809360001092DF
:1005500060000FBEA895109201081092000881E07B
:1005600008952FEF3FEFFC013587248708951092FF
:10057000BE011092BD0188EE93E0A0E0B0E0809350
:10058000BF019093C001A093C101B093C2018FE855
:1005900091E09093BC018093BB018FEF9FEF90930C
:1005A000C8018093C7010895FC01818D228D90E0E0
:1005B000805C9F4F821B910960E470E00E94120BE7
:1005C0000895FC01918D828D981731F0828DE80F8E
:1005D000F11D858D90E008958FEF9FEF0895FC0148
:1005E000918D828D981761F0828DDF01A80FB11D6A
:1005F0005D968C91928D9F5F9F73928F90E008958E
:100600008FEF9FEF089583E794E0892B49F080E016
:1006100090E0892B29F00E94730481110C94000052
:100620000895FC01848DDF01A80FB11DA35ABF4FAF
:100630002C91848D90E001968F739927848FA689E1
:10064000B7892C93A089B1898C9180648C93938D08
:10065000848D981306C00288F389E02D80818F7DF8
:1006600080830895CF93DF93EC01888D8823C9F0B0
:10067000EA89FB89808185FD05C0A889B9898C91AB
:1006800086FD0FC00FB607FCF5CF808185FFF2CF46
:10069000A889B9898C9185FFEDCFCE010E94110305
:1006A000E7CFDF91CF910895CF92DF92FF920F9322
:1006B0001F93CF93DF931F92CDB7DEB76C01DC01A0
:1006C0005B969C915B975C968C915C97981307C0A6
:1006D0005096ED91FC915197808185FD32C0F601D5
:1006E000038D10E00F5F1F4F0F731127F02EF601DF
:1006F000848DF81211C00FB607FCF9CFD6015096C1
:10070000ED91FC915197808185FFF1CFC6016983FE
:100710000E9411036981EBCF838DE80FF11DE35A2D
:10072000FF4F6083D6015B960C935B975296ED91D9
:10073000FC91539780818062808381E058968C93EE
:100740000DC0D6015696ED91FC9157976083509657
:10075000ED91FC91519780818064808381E090E0ED
:100760000F90DF91CF911F910F91FF90DF90CF906D
:100770000895BF92CF92DF92EF92FF92CF93DF93D3
:10078000EC016A017B01B22EE889F98982E080835D
:10079000411581EE580761057105A1F060E079E02F
:1007A0008DE390E0A70196010E94260B21503109AC
:1007B000410951095695479537952795211580E1AF
:1007C000380798F0E889F989108260E874E88EE1CA
:1007D00090E0A70196010E94260B215031094109A2
:1007E00051095695479537952795EC85FD853083BA
:1007F000EE85FF852083188EEC89FD89B082EA8919
:10080000FB89808180618083EA89FB89808188609F
:100810008083EA89FB89808180688083EA89FB89FB
:1008200080818F7D8083DF91CF91FF90EF90DF906B
:10083000CF90BF9008951F920F920FB60F92112480
:100840002F938F939F93EF93FF93E0911B02F0916F
:100850001C028081E0912102F091220282FD12C0EF
:100860009081809124028F5F8F73209125028217DF
:1008700051F0E0912402F0E0E55FFD4F958F809309
:10088000240201C08081FF91EF919F918F912F9160
:100890000F900FBE0F901F9018951F920F920FB6DA
:1008A0000F9211242F933F934F935F936F937F93F6
:1008B0008F939F93AF93BF93EF93FF938BE092E05F
:1008C0000E941103FF91EF91BF91AF919F918F9182
:1008D0007F916F915F914F913F912F910F900FBE3C
:1008E0000F901F9018958BE092E00E94D40221E0B7
:1008F000892B09F420E0822F089510920E021092A5
:100900000D0288EE93E0A0E0B0E080930F02909398
:100910001002A0931102B09312028FE991E090931C
:100920000C0280930B028DEC90E090931802809360
:1009300017028CEC90E090931A028093190288ECD5
:1009400090E090931C0280931B0289EC90E09093BE
:100950001E0280931D028AEC90E090932002809307
:100960001F028EEC90E0909322028093210210925D
:100970002402109225021092260210922702089556
:1009800008950E9478090E94C00488EA92E00E94BB
:10099000C5080E944F01C3E0D3E00E946401209784
:1009A000E1F30E940303F9CFCF92DF92EF92FF921F
:1009B0000F931F93CF93DF936C017A01EB01E60E47
:1009C000F71E00E010E0CE15DF0561F06991D60159
:1009D000ED91FC910190F081E02DC6010995080F81
:1009E000191FF1CFC801DF91CF911F910F91FF9097
:1009F000EF90DF90CF9008956115710581F0DB01D4
:100A00000D900020E9F7AD0141505109461B570BED
:100A1000DC01ED91FC910280F381E02D099480E0EE
:100A200090E00895DC01ED91FC910190F081E02DC2
:100A300009940F931F93CF93DF93EC016DE00E9415
:100A400012058C016AE0CE010E941205800F911FF1
:100A5000DF91CF911F910F9108950F931F93CF9323
:100A6000DF93EC010E94FC048C01CE010E94190569
:100A7000800F911FDF91CF911F910F9108954091A9
:100A8000AC025091AD022091AA023091AB02421704
:100A90005307B4F49091E8009570E1F39091E80069
:100AA00092FD19C08093F1008091AC029091AD024B
:100AB00001968F739927892B19F48EEF8093E800A4
:100AC0008091AC029091AD0201969093AD0280931B
:100AD000AC0281E0089580E00895CF92DF92FF920A
:100AE0000F931F93CF93DF931F92CDB7DEB7082FDD
:100AF000162F862F880F8E5F99830E943F0583E013
:100B00000E943F05F02EC02E9981D92E8C2D8F1971
:100B1000811778F4F60184910E943F05082F80E048
:100B20000E943F058023FFEFCF1ADF0A8111EECF2D
:100B300001C081E00F90DF91CF911F910F91FF9045
:100B4000DF90CF900895615030F02091F100FC01CA
:100B500020830196F8CF289884E68093AF02089509
:100B60002FB7FC012083F89467706093E900089523
:100B7000CF93DF931F92CDB7DEB7682FCE010196DA
:100B80000E94B0058091F20099819FBF0F90DF9184
:100B9000CF910895FF920F931F93CF93DF9300D0CF
:100BA000CDB7DEB7F62E8A019091AE02992311F0EF
:100BB00057FF03C08FEF9FEF2BC0682FCE01019628
:100BC0007A830E94B0058091F20090E0A8017A81BA
:100BD000801791070CF4AC01EF2DF72FF40E84E68B
:100BE000FE1639F028988093AF029091F10091930E
:100BF000F7CF4115510521F08091F200882321F0B3
:100C000089818FBFCA0104C08BE68093E800F8CFCA
:100C10000F900F90DF91CF911F910F91FF9008954A
:100C2000CF93DF931F92CDB7DEB741E050E0BE0116
:100C30006F5F7F4F0E94CA05019719F4898190E088
:100C400002C08FEF9FEF0F90DF91CF910895CF9368
:100C5000DF931F92CDB7DEB7682FCE0101960E94B9
:100C6000B0059091E800892F807295FF04C09091A3
:100C7000F20080E4891B99819FBF0F90DF91CF9193
:100C800008956F927F928F929F92AF92BF92CF9270
:100C9000DF92EF92FF920F931F93CF93DF931F92F8
:100CA000CDB7DEB7782E7B01C42EB52E8091AE0273
:100CB000882369F0042F152F8AEFD82E872D807294
:100CC000982E9AE3A92E872D8074882E11C08FEF5D
:100CD0009FEF57C0872D0E942706682E81110CC0F8
:100CE000DA94A9F361E070E080E090E00E9450099E
:100CF0000115110579F73BC0282F30E002171307C3
:100D00000CF4602E672DCE0101960E94B0058091F3
:100D1000E80085FF29C0262D30E0021B130B992027
:100D200039F06A948FEF6816B1F01092F100F9CFA4
:100D3000F701862D77FE07C0815058F0949190936B
:100D4000F1003196F9CF815020F091919093F1000C
:100D5000FACFE20EF31E8091E80085FF0FC0011567
:100D6000110511F481100AC089818FBFC1CF5D9830
:100D700084E68093B0028C2D9B2D03C0A092E800E6
:100D8000F3CF0F90DF91CF911F910F91FF90EF90D4
:100D9000DF90CF90BF90AF909F908F907F906F909B
:100DA00008951092E9001092AD021092AC02909357
:100DB000AB028093AA020895CF92DF92FF920F9325
:100DC0001F93CF93DF9300D0CDB7DEB7F82E8A0103
:100DD0006B0101151105B1F0F601F7FE02C0849117
:100DE00001C0808149835A830E943F050150110947
:100DF000FFEFCF1ADF0A49815A818111EACF8FEFC5
:100E00009FEF01C0CA010F900F90DF91CF911F910A
:100E10000F91FF90DF90CF9008951F93CF93DF93B2
:100E20001F92CDB7DEB7162F2091E80022FFFCCF2E
:100E3000612F79830E94A3058BEF8093E800812FB7
:100E40007981972F0F90DF91CF911F910895CF93C4
:100E5000DF931F92CDB7DEB71982CE0101960E94B3
:100E60005102CE0101960E94EC09898190E00F9019
:100E7000DF91CF9108951F920F920FB60F92112418
:100E8000EF92FF920F931F932F933F934F935F9394
:100E90006F937F938F939F93AF93BF93EF93FF9342
:100EA000CF93DF93CDB7DEB76297DEBFCDBF109291
:100EB000E9008091E80083FFEBC068E0CE010A966C
:100EC0000E94A30582EF8093E8009A8597FF05C0F2
:100ED0008091E80080FFFCCF03C08EEF8093E80094
:100EE000892F807609F0B9C08B85811105C01092D9
:100EF000F1001092F100C5C0282F2D7F213009F498
:100F0000C0C0853049F48091E80080FFFCCF8C851B
:100F100080688093E300B5C0863009F076C02D85E7
:100F2000E888F988223071F580E090E02A8B0E94F1
:100F3000D1060E94270799E08E010F5F1F4FF8012D
:100F4000392F11923A95E9F799832A892A8391E0FA
:100F50009E8390E898879AEF99872091AC02309110
:100F6000AD02275F3F4F3C832B838D83C7010E94D7
:100F7000D10649E050E0B80180E00E94DC060E9402
:100F800027077FC0C7012A8B0E94D1062A892232F7
:100F900041F482E290E00E94F709892B09F071C0C8
:100FA00074C0213069F488899989089711F42093D5
:100FB000A9028091A902811118C065E071E01AC0F0
:100FC000233009F062C08C85882391F0823021F4AF
:100FD00060E183E291E006C0813009F056C06BE029
:100FE00087E191E00E946D054AC063EF70E002C0A6
:100FF00064E371E06115710509F447C0FB01449198
:1010000050E080E80E94DC063CC0873009F43DC017
:10101000883021F481E08093F10033C0893089F574
:10102000937099F5EFEEF0E081E021E096E3809394
:10103000E9002093EB0034913093EC009093ED00A5
:101040008F5F3196853099F78EE78093EA00109292
:10105000EA008C858093AE0214C0888999890E9429
:10106000D1068E85811105C0CE010A960E945C02D0
:1010700006C0823051F4CE010A960E941F0A8823CE
:1010800021F08EEF8093E80003C081E28093EB00B3
:1010900062960FB6F894DEBF0FBECDBFDF91CF9141
:1010A000FF91EF91BF91AF919F918F917F916F9140
:1010B0005F914F913F912F911F910F91FF90EF9072
:1010C0000F900FBE0F901F9018958093E9008091AC
:1010D000F200882319F08AE38093E80008951F92B4
:1010E0000F920FB60F9211242F933F934F935F935C
:1010F0006F937F938F939F93AF93BF93EF93FF93E0
:101100008091E1001092E10083FF0FC01092E9008E
:1011100091E09093EB001092EC0092E39093ED003D
:101120001092AE0298E09093F00082FF1DC083E021
:101130000E9465088091B002882339F08091B00246
:1011400081508093B002882369F08091AF02882398
:1011500059F08091AF0281508093AF02811104C099
:10116000289A02C05D9AF1CFFF91EF91BF91AF91A4
:101170009F918F917F916F915F914F913F912F91AF
:101180000F900FBE0F901F9018951092AE0281E045
:101190008093D70080EA8093D80082E189BD09B4AA
:1011A00000FEFDCF61E070E080E090E00E94500919
:1011B00080E98093D8008CE08093E2001092E000F8
:1011C000559A209A08951F920F920FB60F921124EC
:1011D0002F933F938F939F93AF93BF938091B202CE
:1011E0009091B302A091B402B091B5023091B102D6
:1011F00023E0230F2D3720F40196A11DB11D05C05A
:1012000026E8230F0296A11DB11D2093B102809301
:10121000B2029093B302A093B402B093B50280914E
:10122000B6029091B702A091B802B091B9020196AE
:10123000A11DB11D8093B6029093B702A093B8028E
:10124000B093B902BF91AF919F918F913F912F9130
:101250000F900FBE0F901F9018953FB7F894809194
:10126000B6029091B702A091B802B091B90226B52A
:10127000A89B05C02F3F19F00196A11DB11D3FBFCE
:101280006627782F892F9A2F620F711D811D911D5E
:1012900042E0660F771F881F991F4A95D1F708957E
:1012A000CF92DF92EF92FF92CF93DF936B017C019D
:1012B0000E942D09EB01C114D104E104F10489F06D
:1012C0000E94110B0E942D096C1B7D0B683E734020
:1012D00090F381E0C81AD108E108F108C851DC4F49
:1012E000EACFDF91CF91FF90EF90DF90CF900895FC
:1012F000789484B5826084BD84B5816084BD85B5F1
:10130000826085BD85B5816085BDEEE6F0E08081B7
:1013100081608083E1E8F0E01082808182608083D8
:10132000808181608083E0E8F0E08081816080835B
:10133000E1E9F0E080818260808380818160808348
:10134000E0E9F0E0808181608083E1ECF0E0808181
:1013500084608083808182608083808181608083DB
:10136000E3ECF0E0808181608083E0ECF0E080815C
:1013700082608083E2ECF0E0808181608083EAE734
:10138000F0E08081846080838081826080838081BE
:10139000816080838081806880830895FF920F93AD
:1013A0001F93CF93DF93EC01F62EE881F98104803F
:1013B000F581E02D09958C01E881F9810680F7819E
:1013C000E02D6F2DCE010995C8019927DF91CF91AE
:1013D0001F910F91FF900895FC0120812F5F2083C2
:1013E00049E150E068EB71E080E80C94DC0645E6EA
:1013F00050E061ED71E080E80C94DC06EF92FF9222
:101400000F931F93CF93DF931F92CDB7DEB78983DE
:101410008B017A0141E050E0BE016F5F7F4F84E0B5
:101420000E944106A701B80184E40E9441060F9082
:10143000DF91CF911F910F91FF90EF900895FC01E4
:1014400091818081813A31F481E0913091F0933043
:1014500089F411C0813271F49B3021F48281809330
:101460000D0105C09A3031F4828180930C0181E036
:101470000895089580E0089548E050E082E00C94DB
:10148000FE09CF93DF93DC01683818F0E8E7E60F38
:1014900025C0E62FF0E067FF11C0E058F10981E0B8
:1014A00090E001C0880FEA95EAF714969C91149792
:1014B000982B14969C931497E0E010C0E85CFE4FC4
:1014C000E491EE2309F440C0E7FF08C014968C9124
:1014D0001497826014968C931497EF7716968C91DC
:1014E00016978E1741F117968C9117978E1719F151
:1014F00018968C9118978E17F1F019968C91199770
:101500008E17C9F01A968C911A978E17A1F01B9618
:101510008C911B978E1779F080E090E0ED01C80F59
:10152000D91F2E81211102C0EE8305C0019686309D
:101530009105A1F709C0BD016C5F7F4FCD010E94ED
:101540003C0A81E090E008C081E090E013969C9313
:101550008E93129780E090E0DF91CF9108956838E4
:1015600018F0E8E7E60F25C0E62FF0E067FF12C0AD
:10157000E058F10921E030E001C0220FEA95EAF7D6
:101580002095DC0114963C911497322314963C93D9
:10159000E0E00FC0E85CFE4FE491EE2329F1E7FFA5
:1015A00008C0DC0114962C9114972D7F14962C936F
:1015B000EF7720E030E0EE2351F0DC01A20FB31F03
:1015C00016964C9116974E1302C016961C922F5FDA
:1015D0003F4F2630310579F7BC016C5F7F4F0E9489
:1015E0003C0A81E090E0089580E090E00895FC01DD
:1015F0001682178210861186128613861482BC0109
:101600006C5F7F4F0C943C0A1092C6021092BD0290
:101610001092BC028FEA91E09093BB028093BA02D1
:101620000895089597FB072E16F4009407D077FDD0
:1016300009D00E94480B07FC05D03EF49095819597
:101640009F4F0895709561957F4F0895A1E21A2EDE
:10165000AA1BBB1BFD010DC0AA1FBB1FEE1FFF1F56
:10166000A217B307E407F50720F0A21BB30BE40BA6
:10167000F50B661F771F881F991F1A9469F76095ED
:101680007095809590959B01AC01BD01CF010895A7
:10169000AA1BBB1B51E107C0AA1FBB1FA617B70798
:1016A00010F0A61BB70B881F991F5A95A9F78095B4
:1016B0009095BC01CD010895EE0FFF1F0590F491A8
:0816C000E02D0994F894FFCF1E
:1016C80090D0030000E10000000000000101FF00CD
:1016D800000558585858587FF900537065656420BC
:1016E80073657420746F2035373630300053706559
:1016F80065642073657420746F2031313532303061
:101708000053706565642073657420746F203235EA
:101718003030303000537065656420736574207410
:101728006F203530303030300053656E64696E6735
:101738002062726964676527732073687574646FC3
:10174800776E20636F6D6D616E640000000000F4B9
:10175800013B021E022E020A021B02000000005476
:1017680003D404D402EF02E102320300000000CEE9
:0A17780009D404410AAF0AF70A0081
:107000005FC0000078C0000076C0000074C00000BF
:1070100072C0000070C000006EC000006CC00000B4
:107020006AC0000068C00000D1C4000064C0000055
:1070300062C0000060C000005EC000005CC00000D4
:107040005AC000009CC0000056C0000054C00000A0
:1070500052C0000050C000004EC000004CC00000F4
:107060004AC0000048C0000046C0000044C0000004
:1070700042C0000040C000003EC000003CC0000014
:107080003AC0000038C0000036C0000034C0000024
:1070900032C0000030C000002EC000002CC0000034
:1070A0002AC0000028C0000026C00000553E6E3EE9
:1070B000173F6E3E173FA83ECA3E173FEA3EFC3ED2
:1070C00011241FBECFEFDAE0DEBFCDBF11E0A0E09C
:1070D000B1E0E8EBFEE702C005900D92A23BB107DC
:1070E000D9F711E0A2EBB1E001C01D92AB3CB107B2
:1070F000E1F71BD3DFC684CF84E08093E900809161
:10710000E80085FD0DC08091E8008B778093E80052
:107110008091E80082FDF3CF8EB38111F9CF02C0D8
:107120008091F100089593E09093E9009091E80038
:1071300095FF0AC08093F1005D9884E690E09093FB
:10714000B9018093B80108959091E8009E779093DB
:10715000E8009091E80090FDEDCF9EB39111F9CF3A
:107160000895F89410926F001092810081E085BF1D
:1071700015BE47985D9A289A0C94000008951F92B6
:107180000F920FB60F9211242F938F939F93EF932B
:10719000FF9310928500109284008091B801909125
:1071A000B901009741F001979093B9018093B8011C
:1071B000892B09F45D9A8091B6019091B7010097EF
:1071C00041F001979093B7018093B601892B09F4A0
:1071D000289A8091B2019091B30101969093B301E6
:1071E0008093B201E0E0F0E085919491019649F03E
:1071F0008091B4019091B50101969093B50180936F
:10720000B401FF91EF919F918F912F910F900FBE3D
:107210000F901F90189542E061EC82E054D342E158
:1072200061E883E050D342E160E884E04CC38091A0
:10723000C301982F9F77913239F59091C401903214
:1072400091F0913209F5813AF9F48091E800877F55
:107250008093E80067E070E082E091E068D480917C
:10726000E8008B770FC0813279F48091E800877F46
:107270008093E80067E070E082E091E0B5D480910F
:10728000E8008E778093E80008956F927F928F9246
:107290009F92AF92BF92CF92DF92EF92FF920F93A5
:1072A0001F93CF93DF9384E08093E9008091E800FF
:1072B00082FF2CC2289884E690E09093B7018093D7
:1072C000B6011ADFC82F853481F48CE49DE19093D8
:1072D000B5018093B40107B600FCFDCFF999FECF4C
:1072E00081E180935700E89503C0843521F404DFE1
:1072F0008DE019DFE2C18C34D9F38035C9F38437CE
:1073000021F484E410DF80E0F4CF813611F489E5C4
:10731000F0CF813491F4F0DEC82FEEDE90E0880FDC
:10732000991F2C2F30E0322F2227330F822B932BE3
:10733000AA2797FDA095BA2F94C1803711F483E551
:10734000D8CF833549F4C9EAD1E01C2F195F899160
:10735000EADE1C13FCCFB1C1863521F481E3E3DE04
:1073600080E3C7CF833731F487E8DDDE85E9DBDEF4
:107370008EE1BFCF8536B9F4E0E0F0E083E095E040
:1073800080935700E89507B600FCFDCF9093570017
:10739000E89507B600FCFDCFE058FF4FE11520E768
:1073A000F20771F7A5CF823719F4E1E0F0E00EC0E3
:1073B000863419F4E0E0F0E009C08E3419F4E3E01B
:1073C000F0E004C0813539F4E2E0F0E089E0809338
:1073D000570084918ECF823631F489E5A4DE80E0B7
:1073E000A2DE80E886CF823419F0873609F0D1C05A
:1073F0001092B5011092B4017FDE082F7DDED82FE8
:107400007BDE182F8BEB810F823010F08FE371CF72
:107410002D2F30E0302B10926F00C73609F043C09B
:1074200081E180935700E895E90100E0BB24B39423
:10743000209709F4AAC0C090BB01D090BC01E09095
:10744000BD01F090BE011634B9F4E02FF0E0EC2954
:10745000FD29849168DE002369F082E0C80ED11C0A
:10746000E11CF11CC092BB01D092BC01E092BD01B5
:10747000F092BE010B2515C0D701C601B695A795A0
:107480009795879501D54FDEE2E0CE0ED11CE11C29
:10749000F11CC092BB01D092BC01E092BD01F09200
:1074A000BE012197C5CF8090BB019090BC01A090F8
:1074B000BD01B090BE01163441F483E0F401809325
:1074C0005700E89507B600FCFDCFE901712C00E0FC
:1074D00066246394209709F44CC0163431F50023D8
:1074E00001F1C090BB01D090BC01E090BD01F090D3
:1074F000BE0102DE272D30E0382BF6010901609233
:107500005700E8951124F2E0CF0ED11CE11CF11CCC
:10751000C092BB01D092BC01E092BD01F092BE01CD
:1075200002C0EADD782E062522C0E6DD682F8091B4
:10753000BB019091BC01A091BD01B091BE01B69577
:10754000A79597958795A8D48091BB019091BC0190
:10755000A091BD01B091BE010296A11DB11D809305
:10756000BB019093BC01A093BD01B093BE012197D4
:10757000B1CF163441F485E0F40180935700E895CB
:1075800007B600FCFDCF8DE0CEDD82E080936F007A
:1075900094C0833471F4C091BB01D091BC01ACDDC7
:1075A00090E021E0FE010C0120935700E8951124A2
:1075B0009FCE833601F5C090BB01D090BC01E09016
:1075C000BD01F090BE0198DDF601E16090E021E0A0
:1075D0000C0120935700E8951124F2E0CF0ED11C46
:1075E000E11CF11CC092BB01D092BC01E092BD0134
:1075F000F092BE017DCE8D3661F4E091BB01F09139
:10760000BC0185E080935700E89507B600FCFDCFEC
:107610006FCE823551F4E091BB01F091BC01C59170
:10762000D4918D2F80DD8C2F64CE843419F564DDE8
:10763000682F8091BB019091BC01A091BD01B091D8
:10764000BE01B695A7959795879526D48091BB01E5
:107650009091BC01A091BD01B091BE010296A11D07
:10766000B11D8093BB019093BC01A093BD01B09369
:10767000BE013ECE8436F1F4C090BB01D090BC0177
:10768000E090BD01F090BE01D701C601B695A79567
:1076900097958795F9D347DD22E0C20ED11CE11CF6
:1076A000F11CC092BB01D092BC01E092BD01F092EE
:1076B000BE0103C08B3109F0A9CE83E08093E900BD
:1076C0009091E8008091E8008E778093E80095FD26
:1076D00011C08091E80080FD04C08EB38111F9CF04
:1076E00015C08091E8008E778093E80003C08EB3C8
:1076F000882361F08091E80080FFF9CF84E08093D7
:10770000E9008091E8008B778093E800DF91CF91CA
:107710001F910F91FF90EF90DF90CF90BF90AF90AF
:107720009F908F907F906F900895CF9390910008D5
:107730001092000884B714BE28E10FB6F894209385
:107740006000109260000FBE40E820E00FB6F89491
:1077500040936100209361000FBE21E025BF32E01D
:1077600035BF3F9A209A559A40936100109261006C
:1077700047985D9A289A109289004AEF40938800B2
:1077800030936F0033E030938100E0E0F0E045910A
:1077900054914F3F5F4F11F02093BA0181FF20C0F9
:1077A000209100019217E1F02093000878948091D5
:1077B0000101882339F08091B2019091B30188379B
:1077C0009140C8F31092010110920008F89481E0F2
:1077D000809301018091BA01882371F0C2DC0CC052
:1077E00080FF04C02091BA012111F8CF83FF04C0AB
:1077F000809100019813EECFD1D078941092B5010A
:107800001092B401CEEF80910101882301F13DDD9A
:1078100024D38091B4019091B50181349F4110F03F
:10782000109201018091BF019091C0010196909347
:10783000C0018093BF01292F97FF02C02C2F291B65
:10784000220F281710F44798DECF479ADCCF80919B
:10785000E00081608093E00084DC80E090E0CF91E4
:107860000895292F30E02230310559F023303105B9
:1078700069F021303105F9F482E190E027E931E047
:107880001EC08EE390E029E531E019C0882349F05D
:10789000813061F0823079F48CE190E029E031E0D0
:1078A0000EC084E090E025E531E009C08CE290E074
:1078B00027E231E004C080E090E020E030E0FA010F
:1078C0003183208308958093E900EBEEF0E080811E
:1078D00081608083EDEEF0E010826093EC004083E5
:1078E0008091EE00881F8827881F08958091C3012A
:1078F00087FF0FC08091E80082FD04C08EB3811124
:10790000F9CF10C08091E8008B770AC08EB388232E
:1079100049F08091E80080FFF9CF8091E8008E77F0
:107920008093E80008950F931F93CF93DF9341D086
:1079300048D0C8EDD0E088818F77888388818068BF
:10794000888388818F7D888319BC1EBA1092C101FB
:1079500000EE10E0F80180818B7F80838881816058
:10796000888342E060E080E0AEDFE1EEF0E080811D
:107970008E7F8083E2EEF0E0808181608083808171
:1079800088608083F80180818E7F80838881806118
:107990008883DF91CF911F910F910895E7EDF0E07B
:1079A0008081816080838AE482BF81E08093C2010C
:1079B000BACFE8EDF0E080818E7F80831092E20004
:1079C00008951092DA001092E10008951F920F922C
:1079D0000FB60F9211242F933F934F935F936F93A2
:1079E0007F938F939F93AF93BF93EF93FF93809178
:1079F000DA0080FF1BC08091D80080FF17C0809103
:107A0000DA008E7F8093DA008091D90080FF0BC06E
:107A100080E189BD82E189BD09B400FEFDCF81E02E
:107A20008EBB1AD203C019BC1EBA16D28091E100D7
:107A300080FF17C08091E20080FF13C08091E200B8
:107A40008E7F8093E2008091E20080618093E2006B
:107A50008091D80080628093D80019BC85E08EBBED
:107A6000FBD18091E10084FF2CC08091E20084FF73
:107A700028C080E189BD82E189BD09B400FEFDCF47
:107A80008091D8008F7D8093D8008091E1008F7E17
:107A90008093E1008091E2008F7E8093E2008091EC
:107AA000E20081608093E2008091C101811106C0F3
:107AB0008091E30087FD02C081E001C084E08EBBBD
:107AC000CBD18091E10083FF21C08091E20083FF50
:107AD0001DC08091E100877F8093E10082E08EBB32
:107AE0001092C1018091E1008E7F8093E10080912E
:107AF000E2008E7F8093E2008091E20080618093BB
:107B0000E20042E060E080E0DEDEA6D1FF91EF918E
:107B1000BF91AF919F918F917F916F915F914F91A5
:107B20003F912F910F900FBE0F901F9018952091AD
:107B3000C9013091CA012617370748F06115710550
:107B400039F42091E8002E772093E80001C0B901B4
:107B500040E061157105A1F12EB3222309F440C064
:107B6000253009F43FC02091E80023FD37C0209163
:107B7000E80022FD2DC02091E80020FFEACF4091CF
:107B8000F3002091F20030E0342BFC01CF016115AD
:107B9000710559F02830310540F481918093F1004E
:107BA000615071092F5F3F4FF1CF41E0283031051F
:107BB00009F040E02091E8002E772093E800C9CF3B
:107BC0004111CACF05C08EB3882351F0853051F0E2
:107BD0008091E80082FFF7CF80E0089581E008956A
:107BE00082E0089583E008956115710529F42091DC
:107BF000E8002B772093E800FC016115710531F155
:107C00008EB3882359F1853059F18091E80083FDC6
:107C100023C08091E80082FFF0CF2091F300809193
:107C2000F20090E0922B892B31F08091F10081934A
:107C30006150710991F78091E8008B778093E8009B
:107C4000DCCF8EB3882351F0853051F08091E8006D
:107C500080FFF7CF80E0089581E0089582E00895E5
:107C600083E008950F931F93CF93DF9300D0CDB798
:107C7000DEB7E3ECF1E088E08E0F9091F100919394
:107C80008E13FBCFD4DA8091E80083FFD0C08091BF
:107C9000C301E091C4014E2F50E04A30510508F075
:107CA000C6C0FA01EA5AF74CE9C0823809F0BFC0F1
:107CB0008091C70187708093E9008091EB0010925A
:107CC000E9009091E800977F9093E80085FB882772
:107CD00080F98093F1001092F10087C0982F9D7F6A
:107CE00009F0A5C0823009F0A2C08091C5018111C0
:107CF00029C08091C701877009F499C08093E90079
:107D00009091EB0090FF1EC09091C401933021F43C
:107D10008091EB00806214C09091EB009061909391
:107D2000EB0021E030E0A90102C0440F551F8A9505
:107D3000E2F74093EA001092EA008091EB0088603D
:107D40008093EB001092E9008091E800877F50C09B
:107D500081116DC01091C5011F770FB7F894809104
:107D6000E800877F8093E800C1DD8091E80080FF14
:107D7000FCCF8091E3008078812B8093E3008068C2
:107D80008093E300111102C082E001C083E08EBB4A
:107D90000FBF4DC08058823008F049C0AE014F5F20
:107DA0005F4F6091C7018091C5019091C60159DD77
:107DB000BC01009709F43BC09091E800977F909335
:107DC000E80089819A81B3DE8091E8008B77809307
:107DD000E8002DC0803859F58091E800877F8093B6
:107DE000E8008091C1018093F1008091E8008E77D6
:107DF0008093E8007BDD1BC0811119C09091C50103
:107E00009230A8F48091E800877F8093E8009093F7
:107E1000C1016CDD8091C101811106C08091E30038
:107E200087FD02C081E001C084E08EBBF4D980915F
:107E3000E80083FF0AC08091EB0080628093EB0032
:107E40008091E800877F8093E8000F900F90DF918A
:107E5000CF911F910F9108950895CF938EB38823EA
:107E600059F0C091E900C7701092E9008091E800D4
:107E700083FDF8DEC093E900CF910895EE0FFF1F58
:107E80000590F491E02D0994F999FECF92BD81BD42
:107E9000F89A992780B50895262FF999FECF1FBA31
:107EA00092BD81BD20BD0FB6F894FA9AF99A0FBE23
:087EB00001960895F894FFCF3C
:107EB8007701000000000000081C03410072006404
:107EC80000750069006E006F002000730072006C7E
:107ED800002000200000002C03410072006400759F
:107EE8000069006E006F002000590075006E002DBB
:107EF800004D0069006E006900200020002000206D
:107F080000200000000403090409023E00020100E9
:107F1800803209040000010202010005240010015A
:107F2800042402040524060001070582030800FF53
:107F380009040100020A00000007050402100001FC
:107F48000705830210000112011001020000080356
:107F58002A50000100020100014341544552494E94
:027F68004100D6
:040000030000700089
:00000001FF

